{
  "contractName": "ERC20SHC",
  "abi": [
    {
      "inputs": [],
      "stateMutability": "nonpayable",
      "type": "constructor"
    },
    {
      "anonymous": false,
      "inputs": [
        {
          "indexed": true,
          "internalType": "address",
          "name": "tokenOwner",
          "type": "address"
        },
        {
          "indexed": true,
          "internalType": "address",
          "name": "spender",
          "type": "address"
        },
        {
          "indexed": false,
          "internalType": "uint256",
          "name": "tokens",
          "type": "uint256"
        }
      ],
      "name": "Approval",
      "type": "event"
    },
    {
      "anonymous": false,
      "inputs": [
        {
          "indexed": true,
          "internalType": "address",
          "name": "from",
          "type": "address"
        },
        {
          "indexed": true,
          "internalType": "address",
          "name": "to",
          "type": "address"
        },
        {
          "indexed": false,
          "internalType": "uint256",
          "name": "tokens",
          "type": "uint256"
        }
      ],
      "name": "Transfer",
      "type": "event"
    },
    {
      "inputs": [],
      "name": "decimals",
      "outputs": [
        {
          "internalType": "uint8",
          "name": "",
          "type": "uint8"
        }
      ],
      "stateMutability": "view",
      "type": "function"
    },
    {
      "inputs": [],
      "name": "name",
      "outputs": [
        {
          "internalType": "string",
          "name": "",
          "type": "string"
        }
      ],
      "stateMutability": "view",
      "type": "function"
    },
    {
      "inputs": [],
      "name": "symbol",
      "outputs": [
        {
          "internalType": "string",
          "name": "",
          "type": "string"
        }
      ],
      "stateMutability": "view",
      "type": "function"
    },
    {
      "inputs": [],
      "name": "totalSupply",
      "outputs": [
        {
          "internalType": "uint256",
          "name": "",
          "type": "uint256"
        }
      ],
      "stateMutability": "view",
      "type": "function"
    },
    {
      "inputs": [
        {
          "internalType": "address",
          "name": "tokenOwner",
          "type": "address"
        }
      ],
      "name": "balanceOf",
      "outputs": [
        {
          "internalType": "uint256",
          "name": "",
          "type": "uint256"
        }
      ],
      "stateMutability": "view",
      "type": "function"
    },
    {
      "inputs": [
        {
          "internalType": "address",
          "name": "receiver",
          "type": "address"
        },
        {
          "internalType": "uint256",
          "name": "numTokens",
          "type": "uint256"
        }
      ],
      "name": "transfer",
      "outputs": [
        {
          "internalType": "bool",
          "name": "",
          "type": "bool"
        }
      ],
      "stateMutability": "nonpayable",
      "type": "function"
    },
    {
      "inputs": [
        {
          "internalType": "address",
          "name": "delegate",
          "type": "address"
        },
        {
          "internalType": "uint256",
          "name": "numTokens",
          "type": "uint256"
        }
      ],
      "name": "approve",
      "outputs": [
        {
          "internalType": "bool",
          "name": "",
          "type": "bool"
        }
      ],
      "stateMutability": "nonpayable",
      "type": "function"
    },
    {
      "inputs": [
        {
          "internalType": "address",
          "name": "owner",
          "type": "address"
        },
        {
          "internalType": "address",
          "name": "delegate",
          "type": "address"
        }
      ],
      "name": "allowance",
      "outputs": [
        {
          "internalType": "uint256",
          "name": "",
          "type": "uint256"
        }
      ],
      "stateMutability": "view",
      "type": "function"
    },
    {
      "inputs": [
        {
          "internalType": "address",
          "name": "owner",
          "type": "address"
        },
        {
          "internalType": "address",
          "name": "buyer",
          "type": "address"
        },
        {
          "internalType": "uint256",
          "name": "numTokens",
          "type": "uint256"
        }
      ],
      "name": "transferFrom",
      "outputs": [
        {
          "internalType": "bool",
          "name": "",
          "type": "bool"
        }
      ],
      "stateMutability": "nonpayable",
      "type": "function"
    },
    {
      "inputs": [],
      "name": "close",
      "outputs": [],
      "stateMutability": "nonpayable",
      "type": "function"
    },
    {
      "inputs": [
        {
          "internalType": "address",
          "name": "owner",
          "type": "address"
        },
        {
          "internalType": "address",
          "name": "buyer",
          "type": "address"
        },
        {
          "internalType": "uint256",
          "name": "numTokens",
          "type": "uint256"
        }
      ],
      "name": "transferSHC",
      "outputs": [
        {
          "internalType": "bool",
          "name": "",
          "type": "bool"
        }
      ],
      "stateMutability": "nonpayable",
      "type": "function"
    },
    {
      "inputs": [
        {
          "internalType": "address",
          "name": "sender",
          "type": "address"
        },
        {
          "internalType": "address",
          "name": "delegate",
          "type": "address"
        },
        {
          "internalType": "uint256",
          "name": "numTokens",
          "type": "uint256"
        }
      ],
      "name": "approveMod",
      "outputs": [
        {
          "internalType": "bool",
          "name": "",
          "type": "bool"
        }
      ],
      "stateMutability": "nonpayable",
      "type": "function"
    }
  ],
  "bytecode": "0x608060405234801561001057600080fd5b506298968060038190553360008181526001602052604081209290925581546001600160a01b0319161790556107718061004b6000396000f3fe608060405234801561001057600080fd5b50600436106100b45760003560e01c806370a082311161007157806370a08231146101ee578063856456151461021457806395d89b411461024a578063a9059cbb14610252578063b6a92ea51461027e578063dd62ed3e146102b4576100b4565b806306fdde03146100b9578063095ea7b31461013657806318160ddd1461017657806323b872dd14610190578063313ce567146101c657806343d726d6146101e4575b600080fd5b6100c16102e2565b6040805160208082528351818301528351919283929083019185019080838360005b838110156100fb5781810151838201526020016100e3565b50505050905090810190601f1680156101285780820380516001836020036101000a031916815260200191505b509250505060405180910390f35b6101626004803603604081101561014c57600080fd5b506001600160a01b038135169060200135610309565b604080519115158252519081900360200190f35b61017e61036f565b60408051918252519081900360200190f35b610162600480360360608110156101a657600080fd5b506001600160a01b03813581169160208101359091169060400135610375565b6101ce6104d5565b6040805160ff9092168252519081900360200190f35b6101ec6104da565b005b61017e6004803603602081101561020457600080fd5b50356001600160a01b03166104f4565b6101626004803603606081101561022a57600080fd5b506001600160a01b0381358116916020810135909116906040013561050f565b6100c161057a565b6101626004803603604081101561026857600080fd5b506001600160a01b038135169060200135610599565b6101626004803603606081101561029457600080fd5b506001600160a01b03813581169160208101359091169060400135610665565b61017e600480360360408110156102ca57600080fd5b506001600160a01b03813581169160200135166106e8565b6040518060400160405280600b81526020016a29b43aba3a32b921b7b4b760a91b81525081565b3360008181526002602090815260408083206001600160a01b038716808552908352818420869055815186815291519394909390927f8c5be1e5ebec7d5bd14f71427d1e84f3dd0314c0f7b2291e5b200ac8c7c3b925928290030190a350600192915050565b60035490565b6001600160a01b03831660009081526001602052604081205482111561039a57600080fd5b6001600160a01b03841660009081526002602090815260408083203384529091529020548211156103ca57600080fd5b6001600160a01b0384166000908152600160205260409020546103f3908363ffffffff61071316565b6001600160a01b0385166000908152600160209081526040808320939093556002815282822033835290522054610430908363ffffffff61071316565b6001600160a01b038086166000908152600260209081526040808320338452825280832094909455918616815260019091522054610474908363ffffffff61072516565b6001600160a01b0380851660008181526001602090815260409182902094909455805186815290519193928816927fddf252ad1be2c89b69c2b068fc378daa952ba7f163c4a11628f55a4df523b3ef92918290030190a35060019392505050565b600281565b6000546001600160a01b031633146104f157600080fd5b33ff5b6001600160a01b031660009081526001602052604090205490565b6001600160a01b03808416600081815260026020908152604080832094871680845294825280832086905580518681529051929493927f8c5be1e5ebec7d5bd14f71427d1e84f3dd0314c0f7b2291e5b200ac8c7c3b925929181900390910190a35060019392505050565b6040518060400160405280600381526020016253484360e81b81525081565b336000908152600160205260408120548211156105b557600080fd5b336000908152600160205260409020546105d5908363ffffffff61071316565b33600090815260016020526040808220929092556001600160a01b03851681522054610607908363ffffffff61072516565b6001600160a01b0384166000818152600160209081526040918290209390935580518581529051919233927fddf252ad1be2c89b69c2b068fc378daa952ba7f163c4a11628f55a4df523b3ef9281900390910190a350600192915050565b6001600160a01b03831660009081526001602052604081205482111561068a57600080fd5b6001600160a01b0384166000908152600160205260409020546106b3908363ffffffff61071316565b6001600160a01b038086166000908152600160205260408082209390935590851681522054610474908363ffffffff61072516565b6001600160a01b03918216600090815260026020908152604080832093909416825291909152205490565b60008282111561071f57fe5b50900390565b60008282018381101561073457fe5b939250505056fea2646970667358221220833bd3561d4a2ba31e06ccb1388011efefa520cc389538c840d0f7ed18b9f94f64736f6c63430006000033",
  "source": "//SPDX-License-Identifier: UNLICENSED\npragma solidity >=0.4.2 <=0.6.0;\n\n\ninterface IERC20 {\n\n\n    event Transfer(address indexed from, address indexed to, uint256 value);\n\n    event Approval(address indexed owner, address indexed spender, uint256 value);\n\n    function totalSupply() external view returns (uint256);\n\n    function balanceOf(address account) external view returns (uint256);\n\n    function transfer(address to, uint256 amount) external returns (bool);\n\n    function allowance(address owner, address spender) external view returns (uint256);\n\n    function approve(address spender, uint256 amount) external returns (bool);\n\n    function transferSHC(address owner, address buyer, uint numTokens) external returns (bool);\n\n    function approveMod(address sender,address delegate, uint numTokens) external  returns (bool) ;\n\n    function transferFrom(\n        address from,\n        address to,\n        uint256 amount\n    ) external returns (bool);\n}\n\n\ncontract ERC20SHC is IERC20 {\n\n    string public constant name = \"ShutterCoin\";\n    string public constant symbol = \"SHC\";\n    uint8 public constant decimals = 2;  \n   \n    address ERCowner; //#1\n    \n\n    event Approval(address indexed tokenOwner, address indexed spender, uint tokens);\n    event Transfer(address indexed from, address indexed to, uint tokens);\n\n\n    mapping(address => uint256) balances;\n\n    mapping(address => mapping (address => uint256)) allowed;\n    \n    uint256 totalSupply_;\n\n    using SafeMath for uint256;\n\n\n   constructor() public {  \n\ttotalSupply_ = 10000000;\n\tbalances[msg.sender] = totalSupply_;\n\tERCowner = msg.sender; \n    }  \n\n    function totalSupply() public view virtual override returns (uint256) {\n\treturn totalSupply_;\n    }\n    \n    function balanceOf(address tokenOwner) public  view  virtual override returns (uint) {\n        return balances[tokenOwner];\n    }\n\n    function transfer(address receiver, uint numTokens) public  virtual override  returns (bool) {\n        require(numTokens <= balances[msg.sender]);\n        balances[msg.sender] = balances[msg.sender].sub(numTokens);\n        balances[receiver] = balances[receiver].add(numTokens);\n        emit Transfer(msg.sender, receiver, numTokens);\n        return true;\n    }\n\n    function approve(address delegate, uint numTokens) public  virtual override  returns (bool) {\n        allowed[msg.sender][delegate] = numTokens;\n        emit Approval(msg.sender, delegate, numTokens);\n        return true;\n    }\n\n    function allowance(address owner, address delegate) public  virtual override  view returns (uint) {\n        return allowed[owner][delegate];\n    }\n\n    function transferFrom(address owner, address buyer, uint numTokens) public virtual override  returns (bool) {\n        require(numTokens <= balances[owner]);    \n        require(numTokens <= allowed[owner][msg.sender]);\n    \n        balances[owner] = balances[owner].sub(numTokens);\n        allowed[owner][msg.sender] = allowed[owner][msg.sender].sub(numTokens);\n        balances[buyer] = balances[buyer].add(numTokens);\n        emit Transfer(owner, buyer, numTokens);\n        return true;\n    }\n    \n    //#3\n    function close() public { \n        require(msg.sender == ERCowner);\n        selfdestruct(msg.sender); \n     }\n\nfunction transferSHC(address owner, address buyer, uint numTokens) public  virtual override returns (bool) {\n        require(numTokens <= balances[owner]);    \n        balances[owner] = balances[owner].sub(numTokens);\n        balances[buyer] = balances[buyer].add(numTokens);\n        emit Transfer(owner, buyer, numTokens);\n        return true;\n    \n    }\n function approveMod(address sender,address delegate, uint numTokens) public  virtual override returns (bool) {\n        allowed[sender][delegate] = numTokens;\n        emit Approval(sender, delegate, numTokens);\n        return true;\n    }\n\n\n\n\n \n}\n\nlibrary SafeMath { \n    function sub(uint256 a, uint256 b) internal pure returns (uint256) {\n      assert(b <= a);\n      return a - b;\n    }\n    \n    function add(uint256 a, uint256 b) internal pure returns (uint256) {\n      uint256 c = a + b;\n      assert(c >= a);\n      return c;\n    }\n}",
  "sourcePath": "/Users/paleknaithani/wanderlust/tour-contract/contracts/ERC20SHC.sol",
  "compiler": {
    "name": "solc",
    "version": "0.6.0+commit.26b70077.Emscripten.clang"
  },
  "schemaVersion": "3.4.5",
  "updatedAt": "2022-05-08T23:43:34.626Z",
  "devdoc": {
    "methods": {}
  },
  "userdoc": {
    "methods": {}
  }
}