{
  "contractName": "tour",
  "abi": [
    {
      "inputs": [],
      "payable": false,
      "stateMutability": "nonpayable",
      "type": "constructor"
    },
    {
      "constant": false,
      "inputs": [
        {
          "internalType": "uint256",
          "name": "isBuyer",
          "type": "uint256"
        }
      ],
      "name": "register",
      "outputs": [],
      "payable": true,
      "stateMutability": "payable",
      "type": "function"
    },
    {
      "constant": false,
      "inputs": [
        {
          "internalType": "address payable",
          "name": "",
          "type": "address"
        }
      ],
      "name": "withdraw",
      "outputs": [],
      "payable": false,
      "stateMutability": "nonpayable",
      "type": "function"
    },
    {
      "constant": false,
      "inputs": [
        {
          "internalType": "uint256",
          "name": "id",
          "type": "uint256"
        },
        {
          "internalType": "uint256",
          "name": "price",
          "type": "uint256"
        }
      ],
      "name": "addTour",
      "outputs": [],
      "payable": false,
      "stateMutability": "nonpayable",
      "type": "function"
    },
    {
      "constant": false,
      "inputs": [
        {
          "internalType": "uint256",
          "name": "id",
          "type": "uint256"
        },
        {
          "internalType": "uint256",
          "name": "price",
          "type": "uint256"
        }
      ],
      "name": "buyTour",
      "outputs": [],
      "payable": false,
      "stateMutability": "nonpayable",
      "type": "function"
    },
    {
      "constant": true,
      "inputs": [],
      "name": "viewUserBalance",
      "outputs": [
        {
          "internalType": "uint256",
          "name": "",
          "type": "uint256"
        }
      ],
      "payable": false,
      "stateMutability": "view",
      "type": "function"
    },
    {
      "constant": true,
      "inputs": [],
      "name": "viewBalance",
      "outputs": [
        {
          "internalType": "uint256",
          "name": "",
          "type": "uint256"
        }
      ],
      "payable": false,
      "stateMutability": "view",
      "type": "function"
    }
  ],
  "bytecode": "0x608060405234801561001057600080fd5b5061093b806100206000396000f3fe6080604052600436106100555760003560e01c806335e20b8a1461005a5780633ff1e05b1461009f57806351cff8d9146100ca57806399af89041461011b578063d7d8bcff14610160578063f207564e1461018b575b600080fd5b34801561006657600080fd5b5061009d6004803603604081101561007d57600080fd5b8101908080359060200190929190803590602001909291905050506101b9565b005b3480156100ab57600080fd5b506100b461047f565b6040518082815260200191505060405180910390f35b3480156100d657600080fd5b50610119600480360360208110156100ed57600080fd5b81019080803573ffffffffffffffffffffffffffffffffffffffff169060200190929190505050610487565b005b34801561012757600080fd5b5061015e6004803603604081101561013e57600080fd5b810190808035906020019092919080359060200190929190505050610616565b005b34801561016c57600080fd5b5061017561071a565b6040518082815260200191505060405180910390f35b6101b7600480360360208110156101a157600080fd5b81019080803590602001909291905050506107c4565b005b60011515600160003373ffffffffffffffffffffffffffffffffffffffff1673ffffffffffffffffffffffffffffffffffffffff16815260200190815260200160002060010160009054906101000a900460ff16151514801561025d575060018060003373ffffffffffffffffffffffffffffffffffffffff1673ffffffffffffffffffffffffffffffffffffffff16815260200190815260200160002060030154145b61026657600080fd5b60006002600084815260200190815260200160002060009054906101000a900473ffffffffffffffffffffffffffffffffffffffff16905060008214156102a957fe5b600082600160003373ffffffffffffffffffffffffffffffffffffffff1673ffffffffffffffffffffffffffffffffffffffff168152602001908152602001600020600001540310156102f857fe5b81600160003373ffffffffffffffffffffffffffffffffffffffff1673ffffffffffffffffffffffffffffffffffffffff1681526020019081526020016000206000015403600160003373ffffffffffffffffffffffffffffffffffffffff1673ffffffffffffffffffffffffffffffffffffffff1681526020019081526020016000206000018190555081600160008373ffffffffffffffffffffffffffffffffffffffff1673ffffffffffffffffffffffffffffffffffffffff1681526020019081526020016000206000015401600160008373ffffffffffffffffffffffffffffffffffffffff1673ffffffffffffffffffffffffffffffffffffffff16815260200190815260200160002060000181905550600160003373ffffffffffffffffffffffffffffffffffffffff1673ffffffffffffffffffffffffffffffffffffffff168152602001908152602001600020600201839080600181540180825580915050906001820390600052602060002001600090919290919091505550505050565b600047905090565b60011515600160003373ffffffffffffffffffffffffffffffffffffffff1673ffffffffffffffffffffffffffffffffffffffff16815260200190815260200160002060010160009054906101000a900460ff161515146104e757600080fd5b6000600160003373ffffffffffffffffffffffffffffffffffffffff1673ffffffffffffffffffffffffffffffffffffffff16815260200190815260200160002060010160006101000a81548160ff0219169083151502179055503373ffffffffffffffffffffffffffffffffffffffff166108fc600160003373ffffffffffffffffffffffffffffffffffffffff1673ffffffffffffffffffffffffffffffffffffffff168152602001908152602001600020600001549081150290604051600060405180830381858888f193505050501580156105ca573d6000803e3d6000fd5b506000600160003373ffffffffffffffffffffffffffffffffffffffff1673ffffffffffffffffffffffffffffffffffffffff1681526020019081526020016000206000018190555050565b60011515600160003373ffffffffffffffffffffffffffffffffffffffff1673ffffffffffffffffffffffffffffffffffffffff16815260200190815260200160002060010160009054906101000a900460ff1615151480156106bb57506000600160003373ffffffffffffffffffffffffffffffffffffffff1673ffffffffffffffffffffffffffffffffffffffff16815260200190815260200160002060030154145b6106c457600080fd5b336002600084815260200190815260200160002060006101000a81548173ffffffffffffffffffffffffffffffffffffffff021916908373ffffffffffffffffffffffffffffffffffffffff1602179055505050565b600060011515600160003373ffffffffffffffffffffffffffffffffffffffff1673ffffffffffffffffffffffffffffffffffffffff16815260200190815260200160002060010160009054906101000a900460ff1615151461077c57600080fd5b600160003373ffffffffffffffffffffffffffffffffffffffff1673ffffffffffffffffffffffffffffffffffffffff16815260200190815260200160002060000154905090565b34600160003373ffffffffffffffffffffffffffffffffffffffff1673ffffffffffffffffffffffffffffffffffffffff1681526020019081526020016000206000018190555060018060003373ffffffffffffffffffffffffffffffffffffffff1673ffffffffffffffffffffffffffffffffffffffff16815260200190815260200160002060010160006101000a81548160ff02191690831515021790555060018114156108ba5760018060003373ffffffffffffffffffffffffffffffffffffffff1673ffffffffffffffffffffffffffffffffffffffff16815260200190815260200160002060030181905550610903565b6000600160003373ffffffffffffffffffffffffffffffffffffffff1673ffffffffffffffffffffffffffffffffffffffff168152602001908152602001600020600301819055505b5056fea265627a7a723158200c4df2d0404dc7498f741f6baf15835fba56588b0a1860fe0b1160c45946e30d64736f6c63430005100032",
  "source": "pragma solidity >=0.4.2 <=0.6.0;\n// pragma solidity ^0.6.2;\n\ncontract tour  {\n   \n    // address chairperson;\n\n    struct Tour{ \n        uint id; // local consortium escrow\n        uint price;\n        address seller;\n        // uint hashOfDetails;\n    }\n\n    struct User{\n        uint escrow;\n        bool status;\n        uint[] tours;\n        uint isBuyer;\n\n    }\n    Tour[] tourInfo;\n    mapping (address=>User) userMap;\n    // mapping (address=>seller) public sellerMap;\n    mapping (uint=>address) metaId;\n\n    \n    // modifiers or rules\n    modifier onlyBuyer{ \n        require(userMap[msg.sender].status==true && userMap[msg.sender].isBuyer==1);\n        _;\n    }\n    modifier onlySeller{ \n        require(userMap[msg.sender].status==true && userMap[msg.sender].isBuyer==0);\n        _;\n    }\n    modifier onlyUser{ \n        require(userMap[msg.sender].status==true);\n        _;\n    }\n    \n    // constructor function\n    constructor () public   { \n\n        \n    }\n    \n    function register (uint isBuyer) public payable { \n        \n        userMap[msg.sender].escrow = msg.value;\n        userMap[msg.sender].status = true;\n        if(isBuyer==1){\n            userMap[msg.sender].isBuyer = 1;\n        }\n        else{\n            userMap[msg.sender].isBuyer = 0;\n            \n        }\n        \n    }\n        \n//    function withdraw (address payable toPay ) onlyUser public{\n\n//        assert(msg.sender == toPay);\n//         userMap[toPay].status=false;\n//         toPay.transfer(userMap[toPay].escrow);\n//         userMap[toPay].escrow = 0;\n        \n//     }\n    function withdraw (address payable  ) onlyUser public{\n\n        userMap[msg.sender].status=false;\n        msg.sender.transfer(userMap[msg.sender].escrow);\n        userMap[msg.sender].escrow = 0;\n        \n    }\n\n\n    function addTour (uint id, uint price) onlySeller public {\n   \n        // Tour memory new_tour;\n        // new_tour.id = id;\n        // new_tour.price=price;\n        // new_tour.seller = msg.sender;\n        // userMap[msg.sender].tours.push(new_tour);\n        metaId[id] = msg.sender;\n\n    }\n\n    function buyTour (uint id, uint price) onlyBuyer public {\n        //Get seller\n        address seller = metaId[id];\n        assert(price!=0);\n        // //Get buyer balance\n        assert(userMap[msg.sender].escrow - price >= 0);\n        //Deduct buyer balance\n        userMap[msg.sender].escrow = userMap[msg.sender].escrow - price;\n        //Add seller balance\n        userMap[seller].escrow = userMap[seller].escrow + price;\n        //Remove tour\n        userMap[msg.sender].tours.push(id);\n        // delete metaId[id];\n   \n    }\n\n    function viewUserBalance () onlyUser public view returns(uint ){\n        \n        return userMap[msg.sender].escrow;\n        \n    }\n    function viewBalance () public view returns(uint ){\n        \n        return address(this).balance;\n        \n    }\n}\n\n",
  "sourcePath": "/Users/rajatjain/Desktop/repos/wanderlust/tour-contract/contracts/tour.sol",
  "compiler": {
    "name": "solc",
    "version": "0.5.16+commit.9c3226ce.Emscripten.clang"
  },
  "schemaVersion": "3.4.7",
  "updatedAt": "2022-04-16T18:42:53.072Z",
  "networkType": "ethereum",
  "devdoc": {
    "methods": {}
  },
  "userdoc": {
    "methods": {}
  }
}