{
  "contractName": "tour",
  "abi": [
    {
      "inputs": [],
      "payable": false,
      "stateMutability": "nonpayable",
      "type": "constructor"
    },
    {
      "constant": false,
      "inputs": [
        {
          "internalType": "bool",
          "name": "isBuyer",
          "type": "bool"
        }
      ],
      "name": "register",
      "outputs": [],
      "payable": true,
      "stateMutability": "payable",
      "type": "function"
    },
    {
      "constant": false,
      "inputs": [
        {
          "internalType": "address payable",
          "name": "",
          "type": "address"
        }
      ],
      "name": "withdraw",
      "outputs": [],
      "payable": false,
      "stateMutability": "nonpayable",
      "type": "function"
    },
    {
      "constant": false,
      "inputs": [
        {
          "internalType": "uint256",
          "name": "id",
          "type": "uint256"
        },
        {
          "internalType": "uint256",
          "name": "price",
          "type": "uint256"
        }
      ],
      "name": "addTour",
      "outputs": [],
      "payable": false,
      "stateMutability": "nonpayable",
      "type": "function"
    },
    {
      "constant": false,
      "inputs": [
        {
          "internalType": "uint256",
          "name": "id",
          "type": "uint256"
        }
      ],
      "name": "buyTour",
      "outputs": [],
      "payable": false,
      "stateMutability": "nonpayable",
      "type": "function"
    },
    {
      "constant": true,
      "inputs": [],
      "name": "viewUserBalance",
      "outputs": [
        {
          "internalType": "uint256",
          "name": "",
          "type": "uint256"
        }
      ],
      "payable": false,
      "stateMutability": "view",
      "type": "function"
    },
    {
      "constant": true,
      "inputs": [],
      "name": "viewBalance",
      "outputs": [
        {
          "internalType": "uint256",
          "name": "",
          "type": "uint256"
        }
      ],
      "payable": false,
      "stateMutability": "view",
      "type": "function"
    }
  ],
  "bytecode": "0x608060405234801561001057600080fd5b50610be1806100206000396000f3fe6080604052600436106100555760003560e01c806324ce2f671461005a5780633ff1e05b1461009557806351cff8d9146100c057806399af890414610111578063be12314514610156578063d7d8bcff14610186575b600080fd5b34801561006657600080fd5b506100936004803603602081101561007d57600080fd5b81019080803590602001909291905050506101b1565b005b3480156100a157600080fd5b506100aa61057f565b6040518082815260200191505060405180910390f35b3480156100cc57600080fd5b5061010f600480360360208110156100e357600080fd5b81019080803573ffffffffffffffffffffffffffffffffffffffff169060200190929190505050610587565b005b34801561011d57600080fd5b506101546004803603604081101561013457600080fd5b810190808035906020019092919080359060200190929190505050610716565b005b6101846004803603602081101561016c57600080fd5b81019080803515159060200190929190505050610966565b005b34801561019257600080fd5b5061019b610acb565b6040518082815260200191505060405180910390f35b60011515600160003373ffffffffffffffffffffffffffffffffffffffff1673ffffffffffffffffffffffffffffffffffffffff16815260200190815260200160002060010160009054906101000a900460ff1615151480156102605750600160003373ffffffffffffffffffffffffffffffffffffffff1673ffffffffffffffffffffffffffffffffffffffff16815260200190815260200160002060030160009054906101000a900460ff165b61026957600080fd5b60006002600083815260200190815260200160002060020160009054906101000a900473ffffffffffffffffffffffffffffffffffffffff16905060006002600084815260200190815260200160002060010154905060008114156102ca57fe5b600081600160003373ffffffffffffffffffffffffffffffffffffffff1673ffffffffffffffffffffffffffffffffffffffff1681526020019081526020016000206000015403101561031957fe5b80600160003373ffffffffffffffffffffffffffffffffffffffff1673ffffffffffffffffffffffffffffffffffffffff1681526020019081526020016000206000015403600160003373ffffffffffffffffffffffffffffffffffffffff1673ffffffffffffffffffffffffffffffffffffffff1681526020019081526020016000206000018190555080600160008473ffffffffffffffffffffffffffffffffffffffff1673ffffffffffffffffffffffffffffffffffffffff1681526020019081526020016000206000015401600160008473ffffffffffffffffffffffffffffffffffffffff1673ffffffffffffffffffffffffffffffffffffffff16815260200190815260200160002060000181905550600160003373ffffffffffffffffffffffffffffffffffffffff1673ffffffffffffffffffffffffffffffffffffffff168152602001908152602001600020600201600260008581526020019081526020016000209080600181540180825580915050906001820390600052602060002090600302016000909192909190915060008201548160000155600182015481600101556002820160009054906101000a900473ffffffffffffffffffffffffffffffffffffffff168160020160006101000a81548173ffffffffffffffffffffffffffffffffffffffff021916908373ffffffffffffffffffffffffffffffffffffffff1602179055505050506002600084815260200190815260200160002060008082016000905560018201600090556002820160006101000a81549073ffffffffffffffffffffffffffffffffffffffff02191690555050505050565b600047905090565b60011515600160003373ffffffffffffffffffffffffffffffffffffffff1673ffffffffffffffffffffffffffffffffffffffff16815260200190815260200160002060010160009054906101000a900460ff161515146105e757600080fd5b6000600160003373ffffffffffffffffffffffffffffffffffffffff1673ffffffffffffffffffffffffffffffffffffffff16815260200190815260200160002060010160006101000a81548160ff0219169083151502179055503373ffffffffffffffffffffffffffffffffffffffff166108fc600160003373ffffffffffffffffffffffffffffffffffffffff1673ffffffffffffffffffffffffffffffffffffffff168152602001908152602001600020600001549081150290604051600060405180830381858888f193505050501580156106ca573d6000803e3d6000fd5b506000600160003373ffffffffffffffffffffffffffffffffffffffff1673ffffffffffffffffffffffffffffffffffffffff1681526020019081526020016000206000018190555050565b60011515600160003373ffffffffffffffffffffffffffffffffffffffff1673ffffffffffffffffffffffffffffffffffffffff16815260200190815260200160002060010160009054906101000a900460ff1615151480156107c65750600160003373ffffffffffffffffffffffffffffffffffffffff1673ffffffffffffffffffffffffffffffffffffffff16815260200190815260200160002060030160009054906101000a900460ff16155b6107cf57600080fd5b6107d7610b75565b828160000181815250508181602001818152505033816040019073ffffffffffffffffffffffffffffffffffffffff16908173ffffffffffffffffffffffffffffffffffffffff1681525050600160003373ffffffffffffffffffffffffffffffffffffffff1673ffffffffffffffffffffffffffffffffffffffff1681526020019081526020016000206002018190806001815401808255809150509060018203906000526020600020906003020160009091929091909150600082015181600001556020820151816001015560408201518160020160006101000a81548173ffffffffffffffffffffffffffffffffffffffff021916908373ffffffffffffffffffffffffffffffffffffffff1602179055505050508060026000858152602001908152602001600020600082015181600001556020820151816001015560408201518160020160006101000a81548173ffffffffffffffffffffffffffffffffffffffff021916908373ffffffffffffffffffffffffffffffffffffffff160217905550905050505050565b34600160003373ffffffffffffffffffffffffffffffffffffffff1673ffffffffffffffffffffffffffffffffffffffff1681526020019081526020016000206000018190555060018060003373ffffffffffffffffffffffffffffffffffffffff1673ffffffffffffffffffffffffffffffffffffffff16815260200190815260200160002060010160006101000a81548160ff0219169083151502179055508015610a6c5760018060003373ffffffffffffffffffffffffffffffffffffffff1673ffffffffffffffffffffffffffffffffffffffff16815260200190815260200160002060030160006101000a81548160ff021916908315150217905550610ac8565b6000600160003373ffffffffffffffffffffffffffffffffffffffff1673ffffffffffffffffffffffffffffffffffffffff16815260200190815260200160002060030160006101000a81548160ff0219169083151502179055505b50565b600060011515600160003373ffffffffffffffffffffffffffffffffffffffff1673ffffffffffffffffffffffffffffffffffffffff16815260200190815260200160002060010160009054906101000a900460ff16151514610b2d57600080fd5b600160003373ffffffffffffffffffffffffffffffffffffffff1673ffffffffffffffffffffffffffffffffffffffff16815260200190815260200160002060000154905090565b60405180606001604052806000815260200160008152602001600073ffffffffffffffffffffffffffffffffffffffff168152509056fea265627a7a72315820bcb1e4d8f23810e1e8dacb0d1e0ba3ac1688bd4d57992db8b4270a6c26d307b764736f6c63430005100032",
  "source": "pragma solidity >=0.4.2 <=0.6.0;\n// pragma solidity ^0.6.2;\n\ncontract tour  {\n   \n    // address chairperson;\n\n    struct Tour{ \n        uint id; // local consortium escrow\n        uint price;\n        address seller;\n        // uint hashOfDetails;\n    }\n\n    struct User{\n        uint escrow;\n        bool status;\n        Tour[] tours;\n        bool isBuyer;\n\n    }\n    Tour[] tourInfo;\n    mapping (address=>User) userMap;\n    // mapping (address=>seller) public sellerMap;\n    mapping (uint=>Tour) metaId;\n\n    \n    // modifiers or rules\n    modifier onlyBuyer{ \n        require(userMap[msg.sender].status==true && userMap[msg.sender].isBuyer);\n        _;\n    }\n    modifier onlySeller{ \n        require(userMap[msg.sender].status==true && !userMap[msg.sender].isBuyer);\n        _;\n    }\n    modifier onlyUser{ \n        require(userMap[msg.sender].status==true);\n        _;\n    }\n    \n    // constructor function\n    constructor () public   { \n\n        \n    }\n    \n    function register (bool isBuyer) public payable { \n        \n        userMap[msg.sender].escrow = msg.value;\n        userMap[msg.sender].status = true;\n        if(isBuyer){\n            userMap[msg.sender].isBuyer = true;\n        }\n        else{\n            userMap[msg.sender].isBuyer = false;\n            \n        }\n        \n    }\n        \n//    function withdraw (address payable toPay ) onlyUser public{\n\n//        assert(msg.sender == toPay);\n//         userMap[toPay].status=false;\n//         toPay.transfer(userMap[toPay].escrow);\n//         userMap[toPay].escrow = 0;\n        \n//     }\n    function withdraw (address payable  ) onlyUser public{\n\n        userMap[msg.sender].status=false;\n        msg.sender.transfer(userMap[msg.sender].escrow);\n        userMap[msg.sender].escrow = 0;\n        \n    }\n\n\n    function addTour (uint id, uint price) onlySeller public {\n   \n        Tour memory new_tour;\n        new_tour.id = id;\n        new_tour.price=price;\n        new_tour.seller = msg.sender;\n        userMap[msg.sender].tours.push(new_tour);\n        metaId[id] = new_tour;\n\n    }\n\n    function buyTour (uint id) onlyBuyer public {\n        //Get seller\n        address seller = metaId[id].seller;\n        uint price = metaId[id].price;\n        assert(price!=0);\n        //Get buyer balance\n        assert(userMap[msg.sender].escrow - price >= 0);\n        //Deduct buyer balance\n        userMap[msg.sender].escrow = userMap[msg.sender].escrow - price;\n        //Add seller balance\n        userMap[seller].escrow = userMap[seller].escrow + price;\n        //Remove tour\n        userMap[msg.sender].tours.push(metaId[id]);\n        delete metaId[id];\n   \n    }\n\n    function viewUserBalance () onlyUser public view returns(uint ){\n        \n        return userMap[msg.sender].escrow;\n        \n    }\n    function viewBalance () public view returns(uint ){\n        \n        return address(this).balance;\n        \n    }\n}\n\n",
  "sourcePath": "/Users/paleknaithani/wanderlust/tour-contract/contracts/tour.sol",
  "compiler": {
    "name": "solc",
    "version": "0.5.16+commit.9c3226ce.Emscripten.clang"
  },
  "schemaVersion": "3.4.5",
  "updatedAt": "2022-04-14T17:07:33.502Z",
  "networkType": "ethereum",
  "devdoc": {
    "methods": {}
  },
  "userdoc": {
    "methods": {}
  }
}