{
  "contractName": "tour",
  "abi": [
    {
      "inputs": [
        {
          "internalType": "contract ERC20MYN",
          "name": "_tokenContract",
          "type": "address"
        }
      ],
      "stateMutability": "nonpayable",
      "type": "constructor"
    },
    {
      "inputs": [],
      "name": "tokenContract",
      "outputs": [
        {
          "internalType": "contract ERC20MYN",
          "name": "",
          "type": "address"
        }
      ],
      "stateMutability": "view",
      "type": "function",
      "constant": true
    },
    {
      "inputs": [
        {
          "internalType": "uint256",
          "name": "price",
          "type": "uint256"
        },
        {
          "internalType": "uint256",
          "name": "isBuyer",
          "type": "uint256"
        }
      ],
      "name": "register",
      "outputs": [],
      "stateMutability": "payable",
      "type": "function",
      "payable": true
    },
    {
      "inputs": [
        {
          "internalType": "uint256",
          "name": "id",
          "type": "uint256"
        }
      ],
      "name": "addTour",
      "outputs": [],
      "stateMutability": "nonpayable",
      "type": "function"
    },
    {
      "inputs": [
        {
          "internalType": "uint256",
          "name": "id",
          "type": "uint256"
        },
        {
          "internalType": "uint256",
          "name": "price",
          "type": "uint256"
        },
        {
          "internalType": "address",
          "name": "marketplace",
          "type": "address"
        }
      ],
      "name": "buyTour",
      "outputs": [],
      "stateMutability": "nonpayable",
      "type": "function"
    },
    {
      "inputs": [],
      "name": "viewUserBalance",
      "outputs": [
        {
          "internalType": "uint256",
          "name": "",
          "type": "uint256"
        }
      ],
      "stateMutability": "view",
      "type": "function",
      "constant": true
    },
    {
      "inputs": [],
      "name": "viewBalance",
      "outputs": [
        {
          "internalType": "uint256",
          "name": "",
          "type": "uint256"
        }
      ],
      "stateMutability": "view",
      "type": "function",
      "constant": true
    }
  ],
  "bytecode": "0x608060405234801561001057600080fd5b5060405161061a38038061061a8339818101604052602081101561003357600080fd5b5051600180546001600160a01b03199081163317909155600080546001600160a01b03909316929091169190911790556105a8806100726000396000f3fe6080604052600436106100555760003560e01c806329bb6edb1461005a5780633ff1e05b1461008657806355a373d6146100ad578063d66d6c10146100de578063d71f59cf14610101578063d7d8bcff14610140575b600080fd5b34801561006657600080fd5b506100846004803603602081101561007d57600080fd5b5035610155565b005b34801561009257600080fd5b5061009b6101b6565b60408051918252519081900360200190f35b3480156100b957600080fd5b506100c2610238565b604080516001600160a01b039092168252519081900360200190f35b610084600480360360408110156100f457600080fd5b5080359060200135610247565b34801561010d57600080fd5b506100846004803603606081101561012457600080fd5b50803590602081013590604001356001600160a01b031661032e565b34801561014c57600080fd5b5061009b610526565b33600090815260036020526040902060019081015460ff16151514801561018d57503360009081526003602081905260409091200154155b61019657600080fd5b600090815260046020526040902080546001600160a01b03191633179055565b60008054600154604080516370a0823160e01b81526001600160a01b039283166004820152905191909216916370a08231916024808301926020929190829003018186803b15801561020757600080fd5b505afa15801561021b573d6000803e3d6000fd5b505050506040513d602081101561023157600080fd5b5051905090565b6000546001600160a01b031681565b3360009081526003602052604090206001908101805460ff19168217905581141561028857336000908152600360208190526040909120600191015561029c565b336000908152600360208190526040822001555b600080546001546040805163677011a960e11b81526001600160a01b039283166004820152336024820152604481018790529051919092169263cee0235292606480820193602093909283900390910190829087803b1580156102fe57600080fd5b505af1158015610312573d6000803e3d6000fd5b505050506040513d602081101561032857600080fd5b50505050565b33600090815260036020526040902060019081015460ff161515148015610368575033600090815260036020819052604090912001546001145b61037157600080fd5b6000838152600460205260409020546001600160a01b03168261039057fe5b60008054604080516370a0823160e01b8152336004820152905186926001600160a01b0316916370a08231916024808301926020929190829003018186803b1580156103db57600080fd5b505afa1580156103ef573d6000803e3d6000fd5b505050506040513d602081101561040557600080fd5b505103101561041057fe5b600080546040805163095ea7b360e01b81526001600160a01b038681166004830152602482018890529151919092169263095ea7b392604480820193602093909283900390910190829087803b15801561046957600080fd5b505af115801561047d573d6000803e3d6000fd5b505050506040513d602081101561049357600080fd5b5050600080546040805163677011a960e11b81523360048201526001600160a01b038581166024830152604482018890529151919092169263cee0235292606480820193602093909283900390910190829087803b1580156104f457600080fd5b505af1158015610508573d6000803e3d6000fd5b505050506040513d602081101561051e57600080fd5b505050505050565b60008054604080516370a0823160e01b815233600482015290516001600160a01b03909216916370a0823191602480820192602092909190829003018186803b15801561020757600080fdfea26469706673582212208ecf3972e15c0afe472ff61d47c78fe3688be1d93722633145a594e96ee6a6ea64736f6c63430006000033",
  "source": "// //SPDX-License-Identifier: UNLICENSED\n// pragma solidity >=0.4.2 <=0.6.0;\n\n// import \"./ERC20MYN.sol\";\n\n// contract tour is ERC20MYN {\n\n\n//     struct Tour{ \n//         uint id; // local consortium escrow\n//         uint price;\n//         address seller;\n//         // uint hashOfDetails;\n//     }\n\n//     struct User{\n//         uint escrow;\n//         bool status;\n//         uint[] tours;\n//         uint isBuyer;\n\n//     }\n//     // ERC20MYN public tokenContract;\n//     address owner;\n//     Tour[] tourInfo;\n//     mapping (address=>User) userMap;\n//     // mapping (address=>seller) public sellerMap;\n//     mapping (uint=>address) metaId;\n\n    \n//     // modifiers or rules\n//     modifier onlyBuyer{ \n//         require(userMap[msg.sender].status==true && userMap[msg.sender].isBuyer==1);\n//         _;\n//     }\n//     modifier onlySeller{ \n//         require(userMap[msg.sender].status==true && userMap[msg.sender].isBuyer==0);\n//         _;\n//     }\n//     modifier onlyUser{ \n//         require(userMap[msg.sender].status==true);\n//         _;\n//     }\n    \n//     // constructor function\n//     constructor (_tokenContract) public   { \n//         owner= msg.sender;\n//         tokenContract =_tokenContract;  \n//     }\n    \n//     function register(uint price, uint isBuyer) public payable{ \n        \n//         userMap[msg.sender].status = true;\n//         if(isBuyer==1){\n//             userMap[msg.sender].isBuyer = 1;\n//         }\n//         else{\n//             userMap[msg.sender].isBuyer = 0;\n            \n//         }\n\n         \n//          tokenContract.Registration(owner,msg.sender, price);\n        \n//     }\n\n//     // function withdraw (address payable  ) onlyUser public{\n\n//     //     userMap[msg.sender].status=false;\n//     //     msg.sender.transfer(userMap[msg.sender].escrow);\n//     //     userMap[msg.sender].escrow = 0;\n        \n//     // }\n\n\n//     function addTour (uint id) onlySeller public {\n//         metaId[id] = msg.sender;\n\n//     }\n\n//     function buyTour (uint id, uint price, address marketplace) onlyBuyer public {\n//         //Get seller\n//         address seller = metaId[id];\n//         assert(price!=0);\n//         // //Get buyer balance\n//         assert(balanceOf(msg.sender)  - price >= 0);\n//         //Deduct buyer balance\n//         // userMap[msg.sender].escrow = userMap[msg.sender].escrow - price;\n//         //Add seller balance\n        \n        \n//         // price=price * 90;\n//         // price=price/100;\n//         // userMap[seller].escrow = userMap[seller].escrow + price;\n//         approve(marketplace, price);\n//         Registration(msg.sender,seller, price);\n//         //Remove tour\n//         // userMap[msg.sender].tours.push(id);\n//         // delete metaId[id];\n   \n//     }\n\n//     function viewUserBalance () public view returns(uint ){\n        \n//         //return userMap[msg.sender].escrow;\n//         return balanceOf(msg.sender);\n        \n//     }\n//     function viewBalance () public view returns(uint ){\n        \n//         //return address(this).balance;\n//         return balanceOf(owner);\n        \n//     }\n// }\n\n// //SPDX-License-Identifier: UNLICENSED\npragma solidity >=0.4.2 <=0.6.0;\n\nimport \"./ERC20MYN.sol\";\ncontract tour  {\n\n\n\n    struct Tour{ \n        uint id; // local consortium escrow\n        uint price;\n        address seller;\n        // uint hashOfDetails;\n    }\n\n    struct User{\n        uint escrow;\n        bool status;\n        uint[] tours;\n        uint isBuyer;\n\n    }\n    ERC20MYN public tokenContract;\n    address owner;\n    Tour[] tourInfo;\n    mapping (address=>User) userMap;\n    // mapping (address=>seller) public sellerMap;\n    mapping (uint=>address) metaId;\n\n    \n    // modifiers or rules\n    modifier onlyBuyer{ \n        require(userMap[msg.sender].status==true && userMap[msg.sender].isBuyer==1);\n        _;\n    }\n    modifier onlySeller{ \n        require(userMap[msg.sender].status==true && userMap[msg.sender].isBuyer==0);\n        _;\n    }\n    modifier onlyUser{ \n        require(userMap[msg.sender].status==true);\n        _;\n    }\n    \n    // constructor function\n    constructor (ERC20MYN _tokenContract) public   { \n        owner= msg.sender;\n        tokenContract =_tokenContract;  \n    }\n    \n    function register(uint price, uint isBuyer) public payable{ \n        \n        userMap[msg.sender].status = true;\n        if(isBuyer==1){\n            userMap[msg.sender].isBuyer = 1;\n        }\n        else{\n            userMap[msg.sender].isBuyer = 0;\n            \n        }\n\n         \n         tokenContract.Registration(owner,msg.sender, price);\n        \n    }\n\n    // function withdraw (address payable  ) onlyUser public{\n\n    //     userMap[msg.sender].status=false;\n    //     msg.sender.transfer(userMap[msg.sender].escrow);\n    //     userMap[msg.sender].escrow = 0;\n        \n    // }\n\n\n    function addTour (uint id) onlySeller public {\n        metaId[id] = msg.sender;\n\n    }\n\n    function buyTour (uint id, uint price, address marketplace) onlyBuyer public {\n        //Get seller\n        address seller = metaId[id];\n        assert(price!=0);\n        // //Get buyer balance\n        assert(tokenContract.balanceOf(msg.sender)  - price >= 0);\n        //Deduct buyer balance\n        // userMap[msg.sender].escrow = userMap[msg.sender].escrow - price;\n        //Add seller balance\n        \n        \n        // price=price * 90;\n        // price=price/100;\n        // userMap[seller].escrow = userMap[seller].escrow + price;\n        tokenContract.approve(marketplace, price);\n        tokenContract.Registration(msg.sender,seller, price);\n        //Remove tour\n        // userMap[msg.sender].tours.push(id);\n        // delete metaId[id];\n   \n    }\n\n    function viewUserBalance () public view returns(uint ){\n        \n        //return userMap[msg.sender].escrow;\n        return tokenContract.balanceOf(msg.sender);\n        \n    }\n    function viewBalance () public view returns(uint ){\n        \n        //return address(this).balance;\n        return tokenContract.balanceOf(owner);\n        \n    }\n}",
  "sourcePath": "/Users/rajatjain/Desktop/phase3/wanderlust/tour-contract/contracts/tour.sol",
  "compiler": {
    "name": "solc",
    "version": "0.6.0+commit.26b70077.Emscripten.clang"
  },
  "schemaVersion": "3.4.7",
  "updatedAt": "2022-05-08T16:14:44.373Z",
  "networkType": "ethereum",
  "devdoc": {
    "methods": {}
  },
  "userdoc": {
    "methods": {}
  }
}