{
  "contractName": "tour",
  "abi": [
    {
      "inputs": [
        {
          "internalType": "contract ERC20SHC",
          "name": "_tokenContract",
          "type": "address"
        }
      ],
      "stateMutability": "nonpayable",
      "type": "constructor"
    },
    {
      "inputs": [],
      "name": "tokenContract",
      "outputs": [
        {
          "internalType": "contract ERC20SHC",
          "name": "",
          "type": "address"
        }
      ],
      "stateMutability": "view",
      "type": "function"
    },
    {
      "inputs": [
        {
          "internalType": "uint256",
          "name": "isBuyer",
          "type": "uint256"
        }
      ],
      "name": "register",
      "outputs": [],
      "stateMutability": "payable",
      "type": "function"
    },
    {
      "inputs": [
        {
          "internalType": "uint256",
          "name": "id",
          "type": "uint256"
        }
      ],
      "name": "addTour",
      "outputs": [],
      "stateMutability": "nonpayable",
      "type": "function"
    },
    {
      "inputs": [
        {
          "internalType": "uint256",
          "name": "id",
          "type": "uint256"
        },
        {
          "internalType": "uint256",
          "name": "price",
          "type": "uint256"
        }
      ],
      "name": "buyTour",
      "outputs": [],
      "stateMutability": "nonpayable",
      "type": "function"
    },
    {
      "inputs": [],
      "name": "viewUserBalance",
      "outputs": [
        {
          "internalType": "uint256",
          "name": "",
          "type": "uint256"
        }
      ],
      "stateMutability": "view",
      "type": "function"
    },
    {
      "inputs": [],
      "name": "viewBalance",
      "outputs": [
        {
          "internalType": "uint256",
          "name": "",
          "type": "uint256"
        }
      ],
      "stateMutability": "view",
      "type": "function"
    }
  ],
  "bytecode": "0x608060405234801561001057600080fd5b506040516105b53803806105b58339818101604052602081101561003357600080fd5b5051600180546001600160a01b03199081163317909155600080546001600160a01b0390931692909116919091179055610543806100726000396000f3fe6080604052600436106100555760003560e01c806329bb6edb1461005a57806335e20b8a146100865780633ff1e05b146100b657806355a373d6146100dd578063d7d8bcff1461010e578063f207564e14610123575b600080fd5b34801561006657600080fd5b506100846004803603602081101561007d57600080fd5b5035610140565b005b34801561009257600080fd5b50610084600480360360408110156100a957600080fd5b508035906020013561019d565b3480156100c257600080fd5b506100cb61034a565b60408051918252519081900360200190f35b3480156100e957600080fd5b506100f26103cc565b604080516001600160a01b039092168252519081900360200190f35b34801561011a57600080fd5b506100cb6103db565b6100846004803603602081101561013957600080fd5b5035610427565b3360009081526003602052604090205460ff1615156001148015610174575033600090815260036020526040902060020154155b61017d57600080fd5b600090815260046020526040902080546001600160a01b03191633179055565b3360009081526003602052604090205460ff16151560011480156101d35750336000908152600360205260409020600201546001145b6101dc57600080fd5b6000828152600460205260409020546001600160a01b0316816101fb57fe5b60008054604080516370a0823160e01b8152336004820152905185926001600160a01b0316916370a08231916024808301926020929190829003018186803b15801561024657600080fd5b505afa15801561025a573d6000803e3d6000fd5b505050506040513d602081101561027057600080fd5b505103101561027b57fe5b600080546040805163b6a92ea560e01b81523360048201526001600160a01b038581166024830152604482018790529151919092169263b6a92ea592606480820193602093909283900390910190829087803b1580156102da57600080fd5b505af11580156102ee573d6000803e3d6000fd5b505050506040513d602081101561030457600080fd5b5050336000908152600360209081526040808320600190810180549182018155845282842001869055948252600490529290922080546001600160a01b03191690555050565b60008054600154604080516370a0823160e01b81526001600160a01b039283166004820152905191909216916370a08231916024808301926020929190829003018186803b15801561039b57600080fd5b505afa1580156103af573d6000803e3d6000fd5b505050506040513d60208110156103c557600080fd5b5051905090565b6000546001600160a01b031681565b60008054604080516370a0823160e01b815233600482015290516001600160a01b03909216916370a0823191602480820192602092909190829003018186803b15801561039b57600080fd5b336000908152600360205260409020805460ff1916600190811790915581141561046757336000908152600360205260409020600160029091015561047b565b336000908152600360205260408120600201555b600080546001546040805163b6a92ea560e01b81526001600160a01b0392831660048201523360248201526103e860448201529051919092169263b6a92ea592606480820193602093909283900390910190829087803b1580156104de57600080fd5b505af11580156104f2573d6000803e3d6000fd5b505050506040513d602081101561050857600080fd5b50505056fea264697066735822122037879817398fbe878c4c45e78a6144b57b6e7190389f4bf25c533b76ca8fa2ae64736f6c63430006000033",
  "source": "//SPDX-License-Identifier: UNLICENSED\npragma solidity >=0.4.2 <=0.6.0;\n\nimport \"./ERC20SHC.sol\";\ncontract tour  {\n\n    struct Tour{ \n        uint id; \n        uint price;\n        address seller;\n    }\n\n    struct User{\n        bool status;\n        uint[] tours;\n        uint isBuyer;\n\n    }\n\n    ERC20SHC public tokenContract;\n    address owner;\n    Tour[] tourInfo;\n    mapping (address=>User) userMap;\n    mapping (uint=>address) metaId;\n\n    // modifiers or rules\n    modifier onlyBuyer{ \n        require(userMap[msg.sender].status==true && userMap[msg.sender].isBuyer==1);\n        _;\n    }\n    modifier onlySeller{ \n        require(userMap[msg.sender].status==true && userMap[msg.sender].isBuyer==0);\n        _;\n    }\n    modifier onlyUser{ \n        require(userMap[msg.sender].status==true);\n        _;\n    }\n    \n    // constructor function\n    constructor (ERC20SHC _tokenContract) public   { \n        owner= msg.sender;\n        tokenContract =_tokenContract;  \n    }\n    \n    function register(uint isBuyer) public payable{ \n        \n        userMap[msg.sender].status = true;\n        if(isBuyer==1){\n            userMap[msg.sender].isBuyer = 1;\n        }\n        else{\n            userMap[msg.sender].isBuyer = 0;\n            \n        }\n\n         tokenContract.transferSHC(owner,msg.sender, 1000);\n        \n    }\n\n    function addTour (uint id) onlySeller public {\n        metaId[id] = msg.sender;\n\n    }\n\n    function buyTour (uint id, uint price) onlyBuyer public {\n        address seller = metaId[id];\n        assert(price!=0);\n        assert(tokenContract.balanceOf(msg.sender)  - price >= 0);\n        tokenContract.transferSHC(msg.sender,seller,price);\n        //Remove tour\n        userMap[msg.sender].tours.push(id);\n        delete metaId[id];\n   \n    }\n\n    function viewUserBalance () public view returns(uint ){\n        \n        //return userMap[msg.sender].escrow;\n        return tokenContract.balanceOf(msg.sender);\n        \n    }\n    function viewBalance () public view returns(uint ){\n        \n        //return address(this).balance;\n        return tokenContract.balanceOf(owner);\n        \n    }\n}",
  "sourcePath": "/Users/paleknaithani/wanderlust/tour-contract/contracts/tour.sol",
  "compiler": {
    "name": "solc",
    "version": "0.6.0+commit.26b70077.Emscripten.clang"
  },
  "schemaVersion": "3.4.5",
  "updatedAt": "2022-05-08T23:43:34.654Z",
  "devdoc": {
    "methods": {}
  },
  "userdoc": {
    "methods": {}
  }
}